:020000040800F2
:1000000000000220ADD3000879E80008FDE80008F0
:1000100011E9000831E9000839E900080000000092
:10002000000000000000000000000000D1BE000839
:1000300041E900080000000061BF000845E9000830
:1000400001D4000801D4000801D4000801D400083C
:1000500001D4000801D40008F5DB010815DC010813
:1000600035DC010855DC010875DC010849E90008A8
:1000700001D4000855E9000801D4000861E900082E
:100080006DE9000879E9000801D4000891E9000849
:100090009DE90008A1E90008A5E9000895DC010830
:1000A00001D4000801D4000801D4000801D40008DC
:1000B00001D4000801D4000801D40008E9CB0008ED
:1000C000F5CB000801D4000801D4000801D40008D1
:1000D00001D4000801D40008A9E9000801D40008EF
:1000E00019DD010801D4000801D4000801D400087A
:1000F00049C90008B5E9000801D4000885E90008ED
:1001000001D4000801D400083DC90008D1E9000865
:10011000DDE9000801D4000801D4000801D400087A
:1001200001D4000801D4000801D4000801D400085B
:1001300001D40008000000000000000001D4000805
:1001400001D4000801D4000801D4000801CC000843
:1001500001D4000801D4000801D4000801D400082B
:1001600001D4000801D4000801D4000801D400081B
:1001700001D40008EDC900080000000000000000E4
:0801800001D4000801D40008BD
:1001C0000348044B834202D0034B03B118477047E6
:1001D000140700201407002000000000054806490D
:1001E0000B1AD90F01EBA301491002D0034B03B145
:1001F0001847704714070020140700200000000073
:1002000010B5064C237843B9FFF7DAFF044B13B15E
:100210000448AFF300800123237010BD18070020AD
:1002200000000000C029030808B5044B1BB10449B5
:100230000448AFF30080BDE80840CFE700000000AD
:100240001C070020C029030810EE102A22F00041EC
:10025000CB0D7F3B162B28DC002B18DB19491941ED
:100260000A4221D0DFED187A70EE277AF5EEC07AD7
:10027000F1EE10FA18DD002A04DA4FF4000040FA1B
:1002800003F31A4422EA010300EE103A7047DFED4F
:100290000E7A70EE277AF5EEC07AF1EE10FA03DDF1
:1002A000002A08DB9FED090A7047B1F1FF4FFBD32D
:1002B00030EE000A70470029FFEE007A18BFB0EE5A
:1002C000670A7047FFFF7F00CAF249710000000013
:1002D00082B08DED010A0199C1F3C753A3F17F02EA
:1002E000162A16DC002A0DDB10481041084212D0F5
:1002F0004FF4800313410B4423EA000300EE103A4D
:1003000002B07047013201F00043F7D143F07E5351
:10031000F4E7802A03D09DED010A02B07047DDEDBD
:10032000017A37EEA70A02B0704700BFFFFF7F00D7
:1003300008B52DED028BB0EE408A00F021F80E4B8F
:1003400093F9003001330BD0B4EE488AF1EE10FA85
:1003500006D6DFED0A8AB4EEE88AF1EE10FA02D48E
:10036000BDEC028B08BD00F025F888EEA80ABDECB4
:10037000028B2123036008BD14020020000000004E
:10038000B1EEC00A704700BF08B5062001F07CFA44
:10039000012009F059F800BF10B5054C34B11346DF
:1003A0000A460146022003F083F810BD204610BD26
:1003B000B1340008014B1868704700BF18020020D4
:1003C00070B50D4E0D4D761BB61006D000240134CD
:1003D00055F8043B9847A642F9D1094E094D761BC2
:1003E00032F0EEFAB61006D00024013455F8043B82
:1003F0009847A642F9D170BD246704082467040811
:100400004867040824670408024B0146186800F096
:10041000B3B900BF18020020024B0146186800F073
:1004200055B900BF18020020844641EA000313F0CA
:1004300003036DD1403A41D351F8043B40F8043BEB
:1004400051F8043B40F8043B51F8043B40F8043BAE
:1004500051F8043B40F8043B51F8043B40F8043B9E
:1004600051F8043B40F8043B51F8043B40F8043B8E
:1004700051F8043B40F8043B51F8043B40F8043B7E
:1004800051F8043B40F8043B51F8043B40F8043B6E
:1004900051F8043B40F8043B51F8043B40F8043B5E
:1004A00051F8043B40F8043B51F8043B40F8043B4E
:1004B00051F8043B40F8043B403ABDD2303211D3EE
:1004C00051F8043B40F8043B51F8043B40F8043B2E
:1004D00051F8043B40F8043B51F8043B40F8043B1E
:1004E000103AEDD20C3205D351F8043B40F8043BEE
:1004F000043AF9D2043208D0D2071CBF11F8013BEC
:1005000000F8013B01D30B8803806046704700BFB1
:10051000082A13D38B078DD010F003038AD0C3F1C0
:100520000403D21ADB071CBF11F8013B00F8013BA2
:1005300080D331F8023B20F8023B7BE7043AD9D361
:10054000013A11F8013B00F8013BF9D20B78037036
:100550004B7843708B788370604670478842F0B464
:100560000DD98B1883420AD9841832B1224613F868
:10057000014D02F8014D9942F9D1F0BC70470F2AA4
:100580000ED80346541E002AF7D001340C44013B18
:1005900011F8012B03F8012FA142F9D1F0BC7047EB
:1005A00040EA01039B073BD1A2F110073F0901F18B
:1005B000200606EB071601F1100300F1100453F8B2
:1005C000105C44F8105C53F80C5C44F80C5C53F875
:1005D000085C44F8085C53F8045C44F8045C10338D
:1005E000B34204F11004EAD17B1C1B0112F00C0F82
:1005F000194402F00F05034415D0043DAD0803EB88
:10060000850C1C1F0E4656F8047B44F8047F644595
:10061000F9D10135AD002B44294402F00302B1E7C2
:10062000541E0346B1E72A46ACE700BFF0B4860784
:1006300046D0541E002A3CD0CAB2034602E014F150
:10064000FF3436D303F8012B9D07F8D1032C29D9A9
:10065000CDB245EA05250F2C45EA054533D9A4F16D
:100660001006360903F1200707EB061703F1100205
:1006700042E9045542E902551032BA42F8D1721CDF
:1006800014F00C0F03EB021204F00F0613D0331F0B
:1006900023F003030433134442F8045B9342FBD179
:1006A00006F003042CB1C9B21C4403F8011B9C42A0
:1006B000FBD1F0BC704734461346002CF3D1F8E769
:1006C00014460346C2E71A462646E0E700293CD016
:1006D00038B551F8043C0C1F002BB8BFE418054690
:1006E00004F066FE234B1A682AB1A2420DD9216894
:1006F0006018824223D0626028461C60BDE8384002
:1007000004F058BEA34203D81A465368002BF9D10F
:1007100011685018A04219D024D82168601883426B
:1007200006D0636054602846BDE8384004F042BEFD
:10073000D3E900030144636021605460F3E7D2E928
:100740000002014462602160D6E7704720680144DE
:10075000501883421160E6D1D3E90003014453608D
:100760001160E0E70C232B602846BDE8384004F018
:1007700021BE00BF34070020F8B5CD1C25F00305CD
:1007800008350C2D38BF0C25002D064633DBA94259
:1007900031D82A4F04F00CFE3A6852B113685B1B43
:1007A00004D43FE023685B1B29D522465468002C03
:1007B000F8D1796800293BD02946304600F0C6FFC1
:1007C000431C28D0C41C24F00304A04205D0211AE5
:1007D000304600F0BBFF01301DD02560304604F0EC
:1007E000E9FD04F10B0020F00700231DC21A01D01F
:1007F0001B1AA350F8BD0C2232600020F8BD0B2B51
:1008000005D8A242636811D05360E7E7144623601D
:100810001C442560E2E70C233046336004F0CAFD37
:100820000020F8BD0B2BF1D8536814463B60D5E788
:10083000304600F08BFF7860BEE700BF3407002031
:100840002DE9F04757EC106B84B0002F8946924693
:100850001946DDE90D545EDB0023662D0B7018D0C0
:10086000462D16D025F02003452B36D003AA02AB27
:10087000CDE9003202210C9B4A4647EC106B02F096
:100880000DFF672D804636D11AF0010F35D1039B3D
:100890001CE003AA02ABCDE9003203210C9B4A46BF
:1008A00047EC106B02F0FAFE804600EB090598F861
:1008B0000030302B34D00C9B1B681D443046394629
:1008C0000022002307F012FAD0B12B46A3EB080355
:1008D0004046236004B0BDE8F08703A902AB09F1EC
:1008E0000109CDE900314A460C9B022147EC106B0F
:1008F00002F0D4FE8046472DC6D008EB0905DDE79F
:10090000039B9D42E2D930215A1C03921970039B2C
:10091000AB42F9D3DAE707F100431F462D239CE7EA
:10092000002200233046394607F0E0F90028C2D102
:100930000C9AC9F101031360BFE700BFF0B40029AE
:100940000446BABF49422D232B23092904F8022B60
:1009500082B043702DDD0DF107063546194F01E0D9
:100960001546194687FB0132CB17C3EBA20303EBF5
:100970008302A1EB42023032632905F8012C05F114
:10098000FF32EDDC3033A91EDBB28E4202F8013CAF
:100990000BD9214601E012F8013B01F8013BB242BC
:1009A000F9D10DF109035D1B2C44201A02B0F0BCF3
:1009B000704730313023041DC1708370201A02B09B
:1009C000F0BC7047676666662DE9F04F8DB00C4647
:1009D000DDF8588016461F46054604F0E3FB036821
:1009E0000693184601F06CFA00230A93D8F80030F9
:1009F0000790073323F0070393ED007B08338DED59
:100A0000047BD4F800B094F818A0C8F80030DDE9F1
:100A1000042323F000499046104684ED127B49469A
:100A20004FF0FF32AF4B07F093F940B940464946CB
:100A30004FF0FF32AB4B07F06DF900287BD0DDE9BA
:100A4000040102460B4607F083F9002840F0358286
:100A50006168481C4BF480622CD0BAF1670F64D0F7
:100A6000BAF1470F61D0002322600AA8039309ABB3
:100A700002900093CDF804A00DF123039DED040B2B
:100A80002846FFF7DDFE8046BAF1650F099B33D893
:100A9000013B1946524604F150000993FFF74EFFFF
:100AA0000A9A1318012A8146236140F37E8101339B
:100AB000236133E006216160002322600AA80393CA
:100AC00009AB02900093CDF804A00DF123039DED36
:100AD000040B2846FFF7B4FE0AF0DF03472B8046DD
:100AE000D2D1099BD91C80F2E280AAF1020A5FFAF6
:100AF0008AFABAF1650FCBD9BAF1660F00F0DE8041
:100B00000A9A9A4240F3E580002BD4BFC3F1020158
:100B100001210A442261A3654FF000099DF82330AA
:100B20000BB32D2384F843301DE0002940F01381DE
:100B300001216160C0E7DDE904010022002307F024
:100B4000DFF810B12D2384F84330674867492BF054
:100B5000040203232260BAF1470F94BF80468846FF
:100B600023614FF00009009733460BAA214628461F
:100B700000F0C2F9013024D0236858052CD4236931
:100B8000424631462846B84701301AD022680B98B1
:100B9000E36892071AD51A1A002A17DD04F1190919
:100BA0004FF0000804E0E3680B981A1A42450DDD87
:100BB00001234A4631462846B847013008F101086A
:100BC000F1D14FF0FF300DB0BDE8F08F9842B8BFC3
:100BD00018460DB0BDE8F08FBAF1650F33D9002289
:100BE0000023D4E9120107F081F8002800F0828088
:100BF00001233F4A31462846B8470130E1D0DDE9BC
:100C000009239A4202DB2268D107C0D5DDE9062319
:100C100031462846B8470130D3D00A9B012BB5DDB9
:100C200004F11A094FF0000803E00A9B013B434519
:100C3000ACDD01234A4631462846B847013008F169
:100C40000108F2D1BDE70A9A012A40F39A800123F4
:100C5000424631462846B8470130B2D0DDE9062386
:100C600031462846B8470130ABD000220023D4E9F2
:100C70001201DDF828A007F039F8002800F0908074
:100C8000BAF1010F40F3888004F11A0A4FF000080E
:100C900003E00A9B013B43457EDD0123524631467A
:100CA0002846B847013008F10108F2D189E76268A7
:100CB00093423FF71AAF4FF0670A21E7002B6268B3
:100CC00078DD2361002A00F0A68001321A442261F7
:100CD00021E722682361D2077FF51DAF5A1C2261EC
:100CE00019E700BFFFFFEF7F50570408545704086F
:100CF00040300408099B002B63DD0A9BD4F858A000
:100D00005345A8BF5346002B9B4608DD424631465B
:100D10002846B84701303FF454AFD4F858A02BEA26
:100D2000EB7BAAEB0B03002B40F3828004F11A0348
:100D30004FF000099A4604E0A36DA3EB0B024A456D
:100D400075DD0123524631462846B847013009F186
:100D50000109F1D135E7002322600AA8039309AB0A
:100D600002900093CDF804A00DF123039DED040B38
:100D70002846FFF765FD099BD91C8046FFF6B5AEF6
:100D800095E7D9073FF563AF424601233146284630
:100D9000B84701303FF415AF4B4604F15002F0E67E
:100DA0000AF1FF3308F10102F0E72268D2077FF56C
:100DB000B5AE7CE6002A33D12168C90730D40122C0
:100DC000A8E60123494A31462846B84701303FF496
:100DD000F8AEDDE90923134324D0DDE906233146CB
:100DE0002846B84701303FF4ECAE099B002B79DA76
:100DF00004F11A0A4FF0000903E0099B5B424B45DE
:100E000070DD0123524631462846B847013009F1CA
:100E10000109F2D1D5E62168C8077FF57CAE54E719
:100E2000023277E62268D3077FF5B1AED5E79A465E
:100E3000DDE909218A4202DB2368D80709D5DDE90B
:100E4000062331462846B84701303FF4BAAEDDE903
:100E500009215245A1EB0203D4BFA1EB0A0999462F
:100E6000B9F1000F0BDD08EB0A024B46314628466C
:100E7000B84701303FF4A5AEDDE909239B1A29EA02
:100E8000E979A3EB0903002B7FF780AE04F11A0A7E
:100E90004FF0000807E0DDE909239B1AA3EB0903E3
:100EA00043457FF773AE0123524631462846B84783
:100EB000013008F10108EED183E6059B0C490D4A8B
:100EC000002BBCBF2D2384F843302BF00403236098
:100ED0000323BAF1470F94BF8846904623614FF031
:100EE000000940E642460A9B4BE600BF403004083A
:100EF000585704085C5704082DE9F0470C46914602
:100F00000A698968DDF820808A42B8BF0A46C9F8B4
:100F1000002094F8431006461F4611B10132C9F86B
:100F20000020236899065CD5D9F800200232C9F860
:100F30000020236813F0060F19461DD1E1688A1AB4
:100F4000002AD8BF194617DD04F1190A002505E06B
:100F5000E368D9F800209B1AAB420CDD012352460E
:100F600039463046C047013005F10105F0D14FF058
:100F7000FF30BDE8F087216894F84330003318BF94
:100F800001238A060AD5E1185A1C302081F8430053
:100F9000224494F8451082F84310023304F14302CE
:100FA00039463046C0470130E1D02368A268216944
:100FB00003F00603042B1DD08A4226DD4FF0000902
:100FC000521A91441A34002501E04D451DDA0123DF
:100FD000224639463046C047013005F10105F4D1BB
:100FE000C5E713F0060F13D094F84330003318BF51
:100FF0000123D3E7D9F80000E3688A42A3EB00039A
:1010000023EAE379DCDC002BDCDC0020BDE8F087A0
:10101000E168D9F800208A1A002AD8BF194693DC63
:10102000AAE700BF2DE9F0430C46097E85B06E2982
:10103000064617460C98984604F1430E6DD039D9F0
:10104000732900F0F68044D9752900F004817829CD
:1010500040F0118178232268DFF858C284F84530C7
:101060000168150651F8043B016040F1A180D107E9
:1010700044BF42F020022260002B00F09380102237
:10108000002184F843106068A0600028C0F2C88086
:10109000216821F004012160002B40F0A38000288A
:1010A00040F0C0807546082A00F0AC80AEEB050326
:1010B000236141E0632900F0E5801AD8002938D087
:1010C000582940F0D88084F845102268DFF8E8C13C
:1010D000C6E76F2900F0BF80702940F0CC802268FD
:1010E000DFF8D0C142F020027823226084F8453036
:1010F000B6E7642902D0692940F0BD802268036800
:10110000110603F1040557D5196805600B4600293F
:1011100059DBDFF8A4C10A22B5E7036822686169D8
:101120001D1D056015061B6802D4500600F1BD8028
:101130001960002375462361CDF800803B4603AA61
:1011400021463046FFF7D8FE013020D02A462369D9
:1011500039463046C047013019D022680398E36809
:10116000920719D51A1A002A16DD04F1190900256B
:1011700004E0E36803981A1AAA420DDD01234A46E7
:1011800039463046C047013005F10105F1D14FF035
:10119000FF3005B0BDE8F0839842B8BF184605B0EF
:1011A000BDE8F083226822F020022260102267E767
:1011B000500648BF9BB25AE75106A5D5B3F9003097
:1011C00005601946A3E76168A1602D200029C3F1DD
:1011D000000384F8430002DB22F004022260DFF8FF
:1011E000D8C00A22754600E00B46B3FBF2F102FBC1
:1011F000113093421CF8000005F8010DF4D2082AC2
:101200007FF454AF2368DB077FF550AF6268236932
:101210009A423FF74BAF302305F8013C013D45E7CB
:10122000002BDFD19CF8003084F8423004F14205F5
:1012300039E703686268191D01601D6800212846AE
:1012400004F066F8002832D0401B60602061002363
:1012500084F8433070E72268036812F0800F03F1CE
:1012600004051AD01B6805606F290CBF08220A22EA
:10127000DFF844C004E7012384F84210236104F13D
:101280004205E4E703681A68191D0123016004F1AF
:10129000420584F842202361D9E712F0400F0DBFC8
:1012A0001B6805601B880560DEE7198041E7606800
:1012B000CCE700BF60570408E03703082DE9F04F82
:1012C0002DED028B0C46896887B00646481EB0F5A6
:1012D000AE7F1546059340F274816FF4AE7740F20D
:1012E0005D13CA190492A3601946236827464FF07C
:1012F000000B43F4F06347F81C3BCDE902BBB84652
:10130000D946DA46CDF804B02B681A78A2F12B033F
:101310004E2B6ED8DFE813F0CF006D00CF00C60073
:101320006D004F005300530053005300530053000F
:101330005300530053006D006D006D006D006D0093
:101340006D006D0041016D006D006D0025011E01F5
:101350006D006D00F6006D006D006D006D00E20027
:101360006D006D006D006D006D00DC006D006D00A6
:101370006D006D00D6006D006D006D006D006D009C
:101380006D006D0041016D006D006D0025011E01B5
:101390006D006D00F6006D006D006D006D00E200E7
:1013A0006D006D006D006D006D00DC006D006D0066
:1013B0006D006D00D6002368D80500F1448119EB5B
:1013C0000B0F16D1236823F4C073236008F8012B98
:1013D000A16801396B682269A160013B0132002BD1
:1013E00022616B6040F3E0802B6801332B600029A1
:1013F0008AD1BAF1000F40F0E78009F1FF39B9F165
:10140000010F40F291800BF1FF33062B1AD8BBF18C
:10141000020F40F24C81BBF1030F13D0ABF1040972
:101420005FFA89F96FEA0909C144D4F87C3118F8E8
:10143000011D2A46304698472369C84503F1FF330A
:101440002361F2D12368D8051A4620D5590500F149
:101450004081226918F8011CD4F87C31013A6529D1
:10146000226108F1FF390DD045290BD02A463046BC
:1014700098472269D4F87C3118F8021C013A22619D
:10148000A8F102092A46304698472268C84612F059
:10149000100500F0B0800025284607B0BDEC028B97
:1014A000BDE8F08F23689905A3D523F4207323604A
:1014B000CDF804A08AE7236818069AD523F08003A4
:1014C000236083E7BBF1070F93D14FF0080B7DE753
:1014D000BBF1060F8DD14FF0070B77E7B9F1000F85
:1014E00040F08280BAF1000F00F0BA80BBF1010F2A
:1014F00003D0BBF1040F7FF47CAF0BF1010B5FFA5B
:101500008BFB63E7BBF1000F63D1BAF1000F5BD136
:10151000236803F4E061B1F5E06F00F0068109F1A2
:10152000FF39B9F1010F8ED847450CD2D4F87C3180
:1015300018F8011D2A46304698472369B84503F13B
:10154000FF332361F2D10125284607B0BDEC028BA1
:10155000BDE8F08FBBF1020F7FF44BAF4FF0030BF0
:1015600034E7236803F4A061B1F5806F06D0580515
:101570007FF53FAFBAF1000F3FF43FAF990504D4B8
:101580000199AAEB0101CDE9021823F4F06343F4B9
:10159000C07323604FF0000A18E7B9F1010F7FF420
:1015A00028AF4FF0020911E7D4F8803129463046C0
:1015B000984700287FF41DAFA16800297FF4A4AEEE
:1015C00017E70023049390E6236823F480732360D5
:1015D00013E7BBF1030F90D0BBF1050F8DD0BAF12B
:1015E000000F3FF40AAFEFE7B9F1020F7FF47EAFCF
:1015F0004FF00309EAE688F80050236803F4C0635B
:10160000B3F5806F39D0029B002B40F083803946C0
:101610000022304601F0CCFC2368B0EE408AF0EEA8
:10162000608A9A07059938D50B681A1D0A601B68ED
:1016300083ED000BE36828460133E36007B0BDEC9F
:10164000028BBDE8F08F23F080032360049B0AF136
:10165000010A002B3FF4BDAE049B013B0493B9E6A5
:10166000236803F4E061B1F5E06F7FF43FAF23F44A
:10167000F06323604FF00109A8E6019B5345A3EBFB
:101680000A02C4D004F26F13984528BF04F5B77856
:1016900040462C4900F0D6F9B9E70E685B0706F121
:1016A000040227D50A60336883ED000BC2E7474583
:1016B000BFF449AFD4F87C3118F8011D2A463046F2
:1016C00098472369B84503F1FF332361F2D101251F
:1016D0003AE7B8457FF637AFD4F87C3118F8011DEA
:1016E0002A46304698472369B84503F1FF33236102
:1016F000F2D128E7059B51EC100B1A6053EC102B2C
:10170000366806F025FBB0B951EC180B06F07EFBED
:1017100030608FE703990A232A460131304601F0F1
:10172000B7FDDDE90238C21AACE723F4F0632360A9
:101730004FF0010B4AE6044800F01AF886ED000A63
:1017400078E700BF74570408B858040838B5074C48
:10175000002305460846236013F0A4FB431C00D079
:1017600038BD2368002BFBD02B6038BDFCEE002079
:101770009FED010A704700BF0000C07F10B58021B7
:101780000446FEF7F9FF606440B1031F00227C307D
:1017900043F8042F8342FBD1002010BD4FF0FF30EF
:1017A00010BD00BF436C0BB100207047E6E700BFDF
:1017B0001F2970B5054608D8436C16460C464BB138
:1017C00053F8240043F8246070BD162202604FF0E5
:1017D000FF3070BDFFF7D2FF08B96B6CF0E74FF038
:1017E000FF3070BD1F2938B521D8426C05460C4624
:1017F0006AB152F8213053B1012B16D0591C10D0C8
:101800000025204642F824509847284638BD2846EF
:1018100000F070F8224601462846BDE8384000F046
:1018200055B816230360012038BD002038BD1623AB
:1018300003604FF0FF3038BD1F2921D838B5436C05
:1018400005460C4683B153F8242003EB84034AB1C8
:10185000511C10D0012A0CD0002520461D60904755
:10186000284638BD012038BDFFF788FF28B96B6CCA
:10187000E9E7032038BD022038BD4FF0FF3038BD06
:101880004FF0FF30704700BF024B01461868FFF76A
:10189000A9BF00BF18020020024B0A460146186883
:1018A000FFF786BF18020020034B1868436C0BB18A
:1018B0000020704762E700BF18020020024B01467B
:1018C0001868FFF7B9BF00BF1802002038B50B46F3
:1018D000074C0546114618460023236007F09CFD7F
:1018E000431C00D038BD2368002BFBD02B6038BDD3
:1018F000FCEE002007F080BD08B430B5002A9CB093
:10190000044635DB4FF4027302910691ADF81430B2
:1019100020A918D0013A0B460492079201911F9A10
:101920004FF6FF7502A9ADF8165004F04BFB421CB0
:1019300001DA8B232360029B00221A701CB0BDE8E1
:10194000304001B070470B460492079201914FF668
:10195000FF751F9AADF8165002A904F033FB431C23
:1019600001DA8B2323601CB0BDE8304001B0704722
:101970008B2202604FF0FF30F5E700BF0CB430B5AA
:10198000204B00299DB01C6837DB4FF40273029096
:101990000690ADF8143021A819D001390346209AD9
:1019A0000491079101904FF6FF7502A92046ADF80A
:1019B000165004F007FB421C01DA8B232360029BC4
:1019C00000221A701DB0BDE8304002B070470346D7
:1019D0000491079101904FF6FF75209AADF81650CB
:1019E00002A9204604F0EEFA431C01DA8B2323609F
:1019F0001DB0BDE8304002B070478B2323604FF02C
:101A0000FF30F5E7180200200CB470B59CB020AC94
:101A10000B4E54F8042B0291234606916FF00045BB
:101A200002A901940795CDE9045604F0CBFA029B74
:101A300000221A701CB0BDE8704002B0704700BFB1
:101A40000802FFFF0EB430B59CB01FAB0C4C0D4D1F
:101A500053F8042B0193014602910691206802A9D4
:101A60006FF000440794CDE9044504F0ABFA029B03
:101A700000221A701CB0BDE8304003B0704700BFB0
:101A8000180200200802FFFF0EB470B59DB021AC13
:101A90004FF4017254F8045BADF8142002900690E4
:101AA00000F00EFA0C4B019401462A46039107916F
:101AB0000A4E18680B9623464FF6FF75002402A9BC
:101AC0000F941494ADF8165004F012FC1DB0BDE84C
:101AD000704003B0704700BF18020020591B000877
:101AE0000CB470B59CB020AC05464FF401730846A9
:101AF00054F8046B02910691ADF8143000F0E0F94F
:101B0000014632462346019403910024079128465A
:101B1000074E0B964FF6FF7502A90F941494ADF87B
:101B2000165004F0E5FB1CB0BDE8704002B07047F1
:101B3000591B000810B50C46B1F90E1005F0B2F8AB
:101B4000002803DB636D0344636510BDA38923F4A0
:101B50008053A38110BD00BF002070472DE9F041E4
:101B60001646B1F90C201F46D3050C460546B1F9BF
:101B70000E1009D422F48052A2813B4632462846F8
:101B8000BDE8F04101F0FEBB0022022303F012FB8E
:101B9000B4F90C20B4F90E10ECE700BF10B50C46F8
:101BA000B1F90E1003F006FBA389421C0EBF23F40B
:101BB000805343F480536065A38110BDB1F90E10CA
:101BC00001F0C6BC000000000000000000000000A2
:101BD0000000000000000000000000000000000005
:101BE000A2EB0300704700BF02780B78012A28BFE0
:101BF0009A42F5D16DE9044540EA0104CDE9026756
:101C00006FF0000C4FEA447212B380EA010414F042
:101C1000070F6AD100F0070420F0070004F0030565
:101C200021F007014FEAC505F0E8042314F0040F82
:101C3000F1E804670CFA05F462EA040266EA0406B5
:101C40000AD063EA0403624667EA0407664603E0D3
:101C5000F0E80423F1E8046782FA4CF582EA06040E
:101C6000A4FA8CF46CBB83FA4CF583EA0705A5FA59
:101C70008CF595B950E9022351E9026782FA4CF5D7
:101C800082EA0604A4FA8CF483FA4CF583EA070589
:101C9000A5FA8CF52543DBD09CB92DBAB5FA85F4AD
:101CA00024F0070427FA04F1DDE9026723FA04F3BC
:101CB00003F0FF0001F0FF01FDE80445A0EB010087
:101CC000704724BAB4FA84F424F0070426FA04F125
:101CD000DDE9026722FA04F202F0FF0001F0FF01E1
:101CE000FDE80445A0EB0100704714F0030F3CD160
:101CF00010F0030428D150F8082B51F8083B82FA61
:101D00004CF582EA0305A5FA8CF55DB950F8042C70
:101D100051F8043C82FA4CF582EA0305A5FA8CF5E9
:101D2000002DE8D02DBAB5FA85F424F0070423FA83
:101D300004F122FA04F202F0FF0001F0FF01FDE8D5
:101D40000445A0EB010070474FEAC40420F00300F3
:101D500050F8082B21F0030151F8083B0CFA04F469
:101D600062EA040263EA0403C9E710F003041AD02C
:101D7000A1EB040120F00300E40750F8042B06D087
:101D80000FD28B785FFAA2F4E41A06D12BB1CB788C
:101D90005FFAB2F4E41A00D11BB920465DF8104B8B
:101DA000704701F1040150F8042BCC0721F0030126
:101DB00051F8043B48D824D222F07F4482FA4CF5F3
:101DC00094EA1325A5FA8CF50AD165B951F8043BBC
:101DD00084EA0204B4EB036F0ED150F8042BEBE756
:101DE0004FEA132355E035F07F454DD10878FDE8E3
:101DF0000445C0F1000070474FEA126203F0FF0390
:101E000047E002EA1C4482FA4CF594EA1345A5FA2D
:101E10008CF50AD165B951F8043B84EA0204B4EBAD
:101E2000034F0CD150F8042BEBE74FEA134330E09B
:101E300015EA1C4528D10B884FEA124229E04FEAE7
:101E4000124203EA1C4324E002F0FF0482FA4CF53C
:101E500094EA1365A5FA8CF50AD165B951F8043BEB
:101E600084EA0204B4EB032F09D150F8042BEBE70A
:101E70004FEA13630DE015F0FF0F05D10B684FEA31
:101E8000122223F07F4304E04FF00000FDE80445F8
:101E9000704712BA1BBA82FA4CF482EA0304A4FA1D
:101EA0008CF5B5FA85F402FA04F203FA04F34FEA6A
:101EB0001260FDE80445A0EB1360704700000000CD
:101EC00090F800F06DE9024520F007016FF0000C7A
:101ED00010F0070491F820F040F049804FF0000422
:101EE0006FF00700D1E9002391F840F000F10800FD
:101EF00082FA4CF2A4FA8CF283FA4CF3A2FA8CF335
:101F00004BBBD1E9022382FA4CF200F10800A4FA9B
:101F10008CF283FA4CF3A2FA8CF3E3B9D1E90423EF
:101F200082FA4CF200F10800A4FA8CF283FA4CF326
:101F3000A2FA8CF37BB9D1E9062301F1200182FAE0
:101F40004CF200F10800A4FA8CF283FA4CF3A2FAE6
:101F50008CF3002BC6D0002A04BF04301A4612BAF4
:101F6000B2FA82F2FDE8024500EBD2007047D1E9F7
:101F7000002304F00305C4F100004FEAC50514F086
:101F8000040F91F840F00CFA05F562EA05021CBF57
:101F900063EA050362464FF00004A9E7002A46D031
:101FA00040EA010313F00303F0B425D1032A23D937
:101FB00004680D68AC423CD1043A35D0A4F1013537
:101FC00025EA040414F0803F2ED1071D0D1D0DE0FD
:101FD00057F8043B0E68A3F10134B34224EA03042A
:101FE00027D1043A20D014F0803F1DD1032A29467E
:101FF000384605F10405EBD803780D789D4202F1CF
:10200000FF360ED186B17BB1044602E082180BD0B8
:1020100053B114F8013F11F8015FAB42A6EB040283
:10202000F4D0581BF0BC70470020F0BC704710463D
:10203000704703780D789D4202F1FF36E3D0F0E758
:1020400070B504460D4645EC104B164603F042FDB4
:1020500051EC100B7EB1C5F30A53C3F16B03002B97
:1020600009DD1B0503F17F55002405F540152246C7
:102070002B4605F0D3FB70BD2DE9F04F734CA3B098
:102080002468079488468146002120461D46002486
:102090000023CDE9043406921E91FFF711FFCDF81D
:1020A0007480834643469A4613F8014B2D2C00F268
:1020B000B380DFE804F01EB1B1B1B1B1B1B1B1AFDD
:1020C000AFAFAFAFB1B1B1B1B1B1B1B1B1B1B1B108
:1020D000B1B1B1B1B1B1AFB1B1B1B1B1B1B1B1B1F2
:1020E000B1ACB12C002D40F0B6800B9B034340F007
:1020F000B180069B13B1069BC3F800804FF0000A25
:102100004FF0000B4BEC10AB23B0BDE8F08F012378
:102110000A930AF101031D939AF80140002CE8D0BC
:10212000302C9A467CD000230B93A4F13003DAB212
:10213000092A00F29D840026374635465046013074
:102140001D90082D047807EB8702CABF06EB8606B0
:1021500003EB420703EB4606A4F13003DAB2092A87
:1021600005F10105EBD907995A46FFF717FF00283B
:1021700000F02C810020652C8346844608956AD0A7
:10218000452CAFD000230C93002D00F0B080089BAD
:102190001A46002B08BF2A463846089205F0C4FAB2
:1021A0000C9B102DA3EB0B032C46A8BF1024092D6C
:1021B000CDE904010B9313DD254B03EBC40353E975
:1021C000122305F02BFBCDE90401304605F0ACFAF3
:1021D00002460B46DDE9040105F06AF9CDE9040188
:1021E0000F2D00F306810B9B002B00F082840B9BCC
:1021F00040F38783162B40F37A850B9AC5F12503AC
:10220000934280F28A850B9B2C1B1C44F7E0002331
:102210000A937EE71D9346E70023302C0A9382D170
:102220009AF80130582B00F06784782B18BF53467A
:1022300000F0628401331D931C78302CFAD09A464A
:10224000002C00F0AF8001230B936EE7642E03088F
:10225000802E03080025DDF8748008F101031D932A
:1022600098F801402B2C00F0E1822D2C00F07382B5
:102270004FF0000EA4F13003092B00F27482302CD1
:1022800005D11D9B01331D931C78302CFAD0A4F18D
:102290003103082B3FF676AF1D9907914A1C1D921A
:1022A000A4F130034C78A4F13001092900F27684BE
:1022B00001321D9203EB830304EB43031478A4F172
:1022C00030010929A3F13003F2D90799521A082ADB
:1022D00040F3648444F61F630C93BEF1000F3FF497
:1022E00053AF0C9B5B420C93002D7FF450AF0B9BC4
:1022F000034357D1BCF1000F7FF4FBAE493C252CC2
:102300003FF6F7AE01A353F824F000BF4B290008B5
:10231000F3200008F3200008F3200008F320000851
:1023200027290008F3200008F3200008F320000804
:10233000F3200008F3200008F3200008F320000831
:10234000F3200008F3200008F3200008F320000821
:10235000F3200008F3200008F3200008F320000811
:10236000F3200008F3200008F3200008F320000801
:10237000F3200008F3200008F3200008F3200008F1
:10238000F3200008F3200008F32000084B29000880
:10239000F3200008F3200008F3200008F3200008D1
:1023A000272900084FF0000A4FF0000B069A0AB1E7
:1023B0001D9B13600A9B002B3FF4A4AE0BF100435E
:1023C0009B464BEC10AB23B0BDE8F08F1D9B0895EE
:1023D00003EB0B021D9213F80B408346A4F130026D
:1023E000092A40F2B183652C4FF0010C7FF4C8AE8E
:1023F00031E70B9B2C1B1C44002C40F3E58214F0AE
:102400000F030AD0BA4901EBC301D1E90001DDE9AC
:10241000042305F003FACDE9040134F00F0440F081
:1024200059820023079300972B46089A5146484645
:1024300003F078F81390002800F004840B9A0C9BAA
:102440000021002AABEB0303A8BF0B460E9322EA40
:10245000E2730F4612938B46139C4846616802F064
:10246000ABFF8046002800F0588122699DED047B77
:102470000232920004F10C010C308DED087BFDF767
:10248000D3FF9DED080B20AA1FA9484603F0A6FB29
:102490001E90002800F01A810121484603F0E8F858
:1024A0000746002800F039811F9B002BC0F21181E4
:1024B0000E9A129D9E180799209C8E4A5B1A2344FF
:1024C000013B9342C4F1360480F2C580D21A1F2A20
:1024D000A4EB020400F33781012393400C93002303
:1024E00010932544079B3444A6421D443346A8BF9D
:1024F0002346AB42A8BF2B46002B02DDE41AED1A9F
:10250000F61A0E9B002B00F3BF80002C00F3D58041
:102510000B9B002B00F3F880002D00F30A81002EA6
:1025200008DD39463246484603F0C0F90746002820
:1025300000F0F38042461E99484603F037FA83467E
:10254000002800F0EA800023C268C36039460F9279
:1025500003F010FA0028C0F25E84059E00F0F483B8
:102560003946584603F0A4FB55EC104B00224FF0BF
:10257000804310EE100A294605F0CCFB00286FD0EE
:102580000F9B002B00F0F9809FED557B5A4C0023E8
:10259000CDE90C348DED107B584D594B06EA0504FE
:1025A0009C4200F00F81079B53B3B4F1D46F27D83E
:1025B000DDE910564CA3D3E900232846314605F047
:1025C000A9FBC0B12846314605F000FC002800F008
:1025D000F28205F0A9F8CDE910010F9B002B40F025
:1025E000E582DDE9101202F1004316911793DDE94F
:1025F0001623CDE90C230D9B03F1D6631B1B0D9312
:102600009DED080BDDE90C5603F064FA284653EC07
:10261000102B314605F002F9DDE9082304F048FFEC
:10262000CDE904010D46079B23B9344B2B409C4256
:1026300000F0FF801E99484602F0FEFE41464846E3
:1026400002F0FAFE3946484602F0F6FE5946484680
:1026500002F0F2FE00E70023109301230C9340E701
:10266000284B20462946002205F0D8F80F9BCDE9DB
:102670001001002B7CD101F1004314901593DDE98A
:102680001434CDE90C3487E739461A46484603F03E
:10269000ABF80746002840D001461E9A484602F093
:1026A000FDFF002839D00F901E99484602F0C4FE65
:1026B0000F9B1E93002C7FF72BAF22461E99484696
:1026C00003F0F4F81E9000287FF422AF5E46044623
:1026D00025E0129A0E9ED51AEDE600BFAFF30080FA
:1026E000000000000000F03F0000C0FFFFFFDF41DE
:1026F000802E030802FCFFFF0000F03F0000F07F87
:102700000000E07F0000E03F4146129A484603F097
:102710006BF8804600287FF4FFAE5E461E9C9E4B01
:102720000593002222230492DDE904ABC9F80030AE
:10273000A8E041462A46484603F0B8F880460028FB
:102740007FF4EDAEE9E7954AD31A012202FA03F3CA
:1027500010930C92C5E64FF0010E08F102031D9391
:1027600098F8024086E50023CDF874800C930BE5C1
:102770009DED107B8DED147B81E7049B002B40F0D9
:102780009680C6F31303002B40F097800022844B01
:102790002046294605F0B4FA002840F0B582002210
:1027A000804B2046294605F039F80A460146CDE916
:1027B000101202F100431A901B93DDE91A34CDE99F
:1027C0000C34E9E6A6F1547305939DED047BDDE935
:1027D0000C01B0EE470AF0EE670ACDE90C0103F0F8
:1027E00079F9DDE90C0153EC102B05F017F8DDE960
:1027F000042304F05DFE05EA010C0B46CDE904015B
:10280000DDE90801684A05460E469445CDE91856AB
:102810005CD9664B994203D1B0F1FF3F3FF47DAFE5
:1028200062494FF0FF33CDE9043103E74FF0000E6A
:1028300093E7DDE9100105F0C3FC04F0C1FF024697
:102840000B46DDE9100104F031FE0F9B049AC5F33D
:10285000130513432B43CDE9080149D046A3D3E91F
:10286000002305F04DFA48B9DDE9080144A3D3E996
:10287000002305F063FA00283FF4DCAE5E46DDE994
:1028800004AB1E9C2146484602F0D6FD4146484610
:1028900002F0D2FD3946484602F0CEFD1399484673
:1028A00002F0CAFD3146484602F0C6FD7EE5049BB3
:1028B000012B02D1002E00F040839FED337B3C4C76
:1028C0000023CDE90C348DED107B65E603F15475E2
:1028D0000595A8E6B4F59A7F40F372812E4B0593D7
:1028E000002222230492DDE904ABC9F800305DE543
:1028F00027A3D3E9002305F003FA00283FF49AAE9A
:10290000BCE71633FFF675AD0C9A2A4BABEB020B06
:1029100003EBCB03DDE90401D3E9002305F0A8F8BC
:1029200082468B4642E51DA8234902F053FB00284E
:102930003FF4DFAB1D9B1B78282B00F097821F48CC
:1029400004F0C6F95BEC10AB30E51DA81C4902F0A1
:1029500041FB00283FF4CDAB1D9B1A49013B1DA84C
:102960001D9302F037FB10B91D9B01331D930A4BD9
:102970000593DDE904AB19E59535A094FFFFDF3F32
:1029800035E5AF350000E03F000000000000F03FFB
:102990009535A094FFFFCF3F0000F07FE2FBFFFFE3
:1029A0000000F03F0000E03FFFFF9F7CFFFFEF7F54
:1029B0000000F0BF802E0308FC2D0408B85804085E
:1029C0007C570408805704083FF42BAD644214F090
:1029D0000F020AD0BA4B03EBC203DDE90401D3E9CD
:1029E000002305F045F8CDE9040124113FF419ADA9
:1029F0001F2C35DC14F01003DDE9040118BF6A2335
:102A0000B04E07930023E20704D5D6E9002304F073
:102A100005FF0123641006F10806F4D10BB1CDE9DE
:102A20000401079B9BB1DDE90412C2F30A53C3F111
:102A30006B03002B11460ADD1F2B40F36B82002233
:102A4000342B049240F371824FF05C7305930022A3
:102A50000023DDE9040105F049F900283FF4E3AC67
:102A60002223C9F800304FF0000A4FF0000B9DE41C
:102A700007995A465046FFF791FA0890002840F00F
:102A800072821D9A02EB0B031D9312F80B40302C3F
:102A900008BFC3F1010240F0E080981801331D9394
:102AA0001C78302CF9D0A4F13103082B12D8DDF8B2
:102AB00074A00027A4F1300E00F1010B54463E46ED
:102AC000012507EB87070EEB47070020631C1D93CA
:102AD000647883E4652C2FD0452C2DD04FF0010C69
:102AE00005E4794B0593240742BF059B43F000435F
:102AF0000593DDE904AB59E40A9A02951EABCDE9D2
:102B000000321DA91FAB714A484601F0B3FF10F017
:102B1000070504463FF446AC062D40F0A080069A17
:102B20000AF10103002A3FF4E9AA13604FF0000AFA
:102B30004FF0000BFFF7E6BA4FF0000B5E465F4622
:102B40004FF0010CFFF7D1BA013096461D9C002AC8
:102B5000BCD00128834405F1010100F00182284422
:102B600000F1FF3C03E04F0063451D460BD0082DEC
:102B700005F1010307EB8701F5DD102BDCBF06EB48
:102B800086067600F0E70546082B9ADD102DDCBF9F
:102B900006EB860602EB4606002097E744F61F6226
:102BA0009342A8BF13460C93FFF797BB9DED107B94
:102BB0008DED167B1BE59FED407B8DED107B0CE5CD
:102BC0002411012C424B40F36581DDE904011E46CE
:102BD00007930023984614F0010F08F101084FEA0B
:102BE000640404D0D6E9002304F018FE0123012C6C
:102BF00006F10806EFD10BB1CDE90401059B324C7B
:102C0000344EA3F154730593079B03EBC808D8E92E
:102C10000001DDE9042304F001FE01EA0403B342EC
:102C20000A46CDE9040100F2D4802B498B4240F2E0
:102C3000C9802A4B0593002307934FF0FF33049379
:102C4000FFF7F1BB204B0593139B04932223DDE98F
:102C500004ABC9F80030FFF7A9BB089823E71E9A18
:102C60003AB1352120A803F073F848461E9902F0C6
:102C7000E3FB013D042D3FF636AF01A353F825F0E9
:102C80009F2C0008952C0008E32A0008E12C00087E
:102C90009F2C0008209B0493219B059323E7DDE9EB
:102CA00020131F9A049102F2334223F4801343EA63
:102CB0000253059317E700BF000000000000F03F3B
:102CC000802E0308D82B03080000F07FB02B0308E8
:102CD000702F03080000A07C0000907CFFFFEF7FB6
:102CE0004FF0FF336FF00045CDE90435FBE6AA490C
:102CF00001EBC301D1E90001DDE9042304F08EFDFD
:102D000082468B46FFF752BB9FED9F7B8DED1A7B72
:102D10009FED9F7B8DED107B4FE59F4CC5F10F051F
:102D200004EBC501DDE90423D1E9000104F076FDDF
:102D30000B9B5D1B04EBC504D4E9002304F06EFD7E
:102D400082468B46FFF732BB0F990B963346934A68
:102D50005E46C3F31303DDE908AB002943D0934279
:102D600000F0B680109B002B7BD00B9A134210D042
:102D70000F9B079ADDE90401002B00F08F80FFF71D
:102D80005FF902460B465046594604F091FB8246D5
:102D90008B46079B1E9C002B3FF474AD804A00239A
:102DA000CDE918325046DDE91823594604F036FDC6
:102DB00003460B4308BF222382468B4608BFC9F84F
:102DC00000305FE502F15473059300230793FFF78A
:102DD0002ABB0023049305942223DDE904ABC9F840
:102DE0000030FFF7E3BA049A1343BBD1079B002BD3
:102DF00040F0A5806B4B0B9A1A401346A3F5801345
:102E00006FEA13536FEA035305934FF0FF330493B4
:102E1000DDE904ABBDE7DDE904450F9B23435A46DA
:102E20005E46DDE908ABB4D1C5F313030B95002B67
:102E3000AFD125F000431B0D1B05B3F1D66FA8D908
:102E4000536913B91369012BA3DD314601224846AA
:102E500002F02CFD3946064602F08CFD002898DD74
:102E6000C4E70C9B049A134293D081E71DA820AAC3
:102E70004D4902F0C7F805287FF461AD219B43F06E
:102E8000FF4343F4E0030593209B0493DDE904AB87
:102E9000FFF78CBA07934FF00008AFE6FFF7D0F8C2
:102EA00002460B465046594604F000FB0022002320
:102EB00082468B4604F01AFF00283FF46AAF2223B3
:102EC000C9F800301E9C4FF0000A4FF0000BD9E407
:102ED000079B049933B3334B0B9A1340B3F1D46F70
:102EE00020D81B0DC3F16B034FF0FF3202FA03F33E
:102EF00099427FF437AF2D4B0B9A9A422CD0294B35
:102F00000B9A1A4002F58013059300230493DDE920
:102F100004AB3EE74FF0FF3202FA03F3049A1A4083
:102F2000049294E54FF0FF33E2E7203B4FF0FF328D
:102F300002FA03F30B40059389E55E46BFE7194BA0
:102F40000B9A1A40B2F1D66F13463FF757AFB2F162
:102F50005C7FB4DD1E9C21E70131D0D1FFF7DEBBE1
:102F60002B460D4610E60023652C08931E461F468F
:102F700018469B4603D01D469C46FFF701B99C4668
:102F8000FFF7B3B8AFF30080000000000000E0BF1F
:102F9000000000000000E03F802E0308FFFF0F004C
:102FA000000050390000F07FC42B0308FFFFEF7FC3
:102FB000014BFFF761B800BF8002002010B4044C41
:102FC00013460A46014620685DF8044BFFF754B8E3
:102FD0001802002010B4044C044B0A460146206835
:102FE0005DF8044BFFF748B818020020800200206B
:102FF0002DE9F041DFF8A88013462DED028B0A463B
:103000000146D8F80000FFF737F855EC104B10EEEA
:10301000102A2B4610EE100A294604F099FE50BBE8
:103020002046294604F0F2FE08EE100ADFED197A78
:10303000B0EEC87AB4EE677AF1EE10FA15DD25F03D
:103040000047204639464FF0FF32134B04F080FE14
:1030500038B9204639464FF0FF320F4B04F05AFE84
:1030600018B1D8F8003022221A60B0EE480ABDEC40
:10307000028BBDE8F081002D084804DAFEF778FBEA
:10308000B1EE408AF1E7BDEC028BBDE8F041FEF7FE
:103090006FBB00BFFFFF7F7FFFFFEF7FB8580408C3
:1030A000180200202DE9F041DFF8AC80264B0A46DB
:1030B0002DED028B0146D8F80000FEF7DDFF55EC40
:1030C000104B10EE102A2B4610EE100A294604F081
:1030D0003FFE50BB2046294604F098FE08EE100A39
:1030E000DFED1A7AB0EEC87AB4EE677AF1EE10FA34
:1030F00015DD25F00047204639464FF0FF32144BCE
:1031000004F026FE38B9204639464FF0FF32104B06
:1031100004F000FE18B1D8F8003022221A60B0EE98
:10312000480ABDEC028BBDE8F081002D094804DAA5
:10313000FEF71EFBB1EE408AF1E7BDEC028BBDE865
:10314000F041FEF715BB00BF80020020FFFF7F7F2C
:10315000FFFFEF7FB858040818020020012B2DE96B
:10316000F84F41D0242B98463ED80F46DFF81CC1BB
:1031700000E02F463D4615F8014B1CF8046016F0A0
:103180000806F6D12D2C6CD02B2C0ABF95F800B078
:10319000A346BD1C002B46D0102B57D0002E14BFC9
:1031A0004FF000496FF000490027B9FBF8FEBC461C
:1031B00008FB1E9A07E0E64513D32FD00CFB084C02
:1031C000012715F801BBABF13004092C05D9ABF18F
:1031D0004104192C0FD8ABF13704A34213DD002FA3
:1031E000E9DA4FF0FF37ECE7FDF7E4F81623036068
:1031F0000020BDE8F88FABF16104192C03D8ABF1C6
:103200005704A342EBDC002F25DB0EB1CCF1000C00
:103210000AB177BB11606046BDE8F88FA245CDDAF0
:103220004FF0FF37CDE7BBF1300F03D04FF00A0866
:103230004346B3E72B7803F0DF03582B1BD14FF045
:10324000100895F801B043460235A7E7BBF1300FEF
:1032500015D09846A2E7222303603AB1691ECC46F6
:10326000D8E795F800B00126BD1C93E7CC46604630
:10327000D2E7E146F2E74FF0080843468EE72C78A4
:1032800004F0DF04582CDAD0984687E7012C0308B5
:1032900064E700BF10B4044C13460A460146206898
:1032A0005DF8044B5AE700BF1802002010B4044C2C
:1032B00013460A46014620685DF8044B4EE700BFFE
:1032C00018020020F8B50D461446064608B1836979
:1032D00043B3254B9C422AD0244B9C4229D0244BFB
:1032E0009C4208BFF468A389A269A2601A0722D58C
:1032F000236903B322686169D31AEDB299422F465C
:1033000029DD0133A168501C0139A16020601570CE
:1033100062699A4216D0A389DB0701D50A2D11D024
:103320003846F8BD01F0E6FA0F4B9C42D4D17468E0
:10333000D9E7B468D7E72146304600F039F838B904
:103340002369D7E72146304601F0AAF90028E7D0E3
:103350004FF0FF37E4E72146304601F0A1F900289D
:10336000F6D122680123CDE7442D0308242D03085C
:10337000042D0308024B0A4601461868FFF7A2BF56
:103380001802002070B50D46084C114606461A4634
:103390002846002323601DF03FFE431C00D070BD73
:1033A0002368002BFBD0336070BD00BFFCEE002013
:1033B0003B4B70B51D6806460C460DB1AB69DBB1E1
:1033C000384B9C421ED0384B9C424AD0374B9C42D3
:1033D00008BFEC68B4F90C2093B2190718D520691E
:1033E00008B313F001022CD0636900225B42A36191
:1033F000A26060B3002070BD284601F07BFA294B23
:103400009C42E0D16C68B4F90C2093B21907E6D461
:10341000DD063CD5580726D4206942F00803A38175
:103420009BB20028DDD103F42072B2F5007FD8D022
:103430003046214601F002FFA389206913F0010202
:10344000D2D1990758BF6269A2600028D2D1B4F9DD
:103450000C301A06CFD543F04003A3814FF0FF3064
:1034600070BDAC68B6E7616B51B104F14403994299
:1034700004D03046FDF72AF9B4F90C200023636329
:1034800000232069636022F024022060C5E742F037
:103490004002092333604FF0FF30A28170BD00BFAE
:1034A00018020020442D0308242D0308042D0308CE
:1034B0002DE9F843224C25680DB36C681F2C3BDCCA
:1034C000984691460F46064688B1D5F8880028B33D
:1034D000D0F8003140F824900122A24000EB840192
:1034E0001343022EC0F80031C1F8808010D0A31C15
:1034F00001346C6045F823700020BDE8F883114E5C
:10350000114D2560002ED8D03468C5F88840D4E726
:10351000D0F804311A43C0F80421E8E70B4B5BB143
:103520004FF48470FCF770FF30B100236C68C0E981
:103530004033C5F88800CDE74FF0FF30DDE700BF2E
:10354000D0080020A82B0308440800200904000824
:1035500038B5074C002305460846236005F03CFFBC
:10356000431C00D038BD2368002BFBD02B6038BD36
:10357000FCEE0020000000002DE9F04F03690F6908
:10358000BB4283B0C0F28680013F01F1140600F116
:10359000140A56F827305AF82720BC00013300944B
:1035A00006EB04099A425444B2FBF3F801943AD36F
:1035B00000252A46B646D4465EF8044BDCF80030B7
:1035C0001FFA84FB08FB0B554FEA154B240C08FB34
:1035D00004B4ADB2551BA2B2C2EB134215FA83F389
:1035E00002EB23429BB243EA0243F1454FEA144502
:1035F0004CF8043B4FEA2242DED2009B5AF80330DB
:103600008BB9019A131F9A450CD252F8043C4BB95E
:10361000A2F1080302E01A68043B1AB99A4507F1BF
:10362000FF37F8D30761044602F0A4F900282DDB28
:1036300008F101085046002356F8041B05688AB2B9
:103640009A1A0B0C12FA85F2C3EB154303EB2243D3
:1036500092B242EA0342B14540F8042B4FEA2343B9
:10366000EAD25AF827200AEB87037AB91A1F924543
:103670000BD253F8042C42B9083B02E01A68043B11
:103680001AB99A4507F1FF37F8D32761404603B0CE
:10369000BDE8F08F002003B0BDE8F08F2DE9F04FBA
:1036A00055EC104B97B0466A209F039182460A92D0
:1036B0000793CDE90045002E00F03683316851B103
:1036C00072684A60012393408B6001F0B5FEDAF81E
:1036D000243000221A602E1EB4BF012300233B6059
:1036E000774BBCBF26F000460196B34300F0B08094
:1036F0009DED007B0022002351EC170B8DED047B28
:1037000004F0F4FA054678B1079A01231360219B6F
:10371000002B00F023836B4B219A1360013B029333
:10372000029817B0BDE8F08FDDE9047814AA15A956
:1037300048EC107B504602F051FA340D834640F0BD
:103740009D80DDE914542C4404F23243202B40F3D5
:10375000CD83C3F140039E40009B04F2124023FA44
:1037600000F0304303F0E0FFA1F1F87301210246BD
:10377000013C0E91104619460022534B03F096FE71
:1037800049A3D3E9002304F049F849A3D3E900236E
:1037900003F08EFE064620460F4603F0D5FF46A3F3
:1037A000D3E9002304F03AF802460B463046394686
:1037B00003F07EFE06460F4604F0E0FA0022814642
:1037C00000233046394604F09BFA002840F0B982C5
:1037D0002C1BB9F1160F04F1FF3800F299823B4B14
:1037E00003EBC903D3E90023DDE9040104F088FAFF
:1037F000002871D00023B8F1000F09F1FF390D93B3
:10380000C0F28C8200230993B9F1000F6ADA099B98
:10381000CDF81890A3EB09030993C9F100030C93A9
:10382000039BDAF82400092B4FF0000964D8052B1C
:1038300040F35A83043B03930024039B023B032B76
:1038400000F26486DFE813F0660463043E04560465
:10385000079A42F20F731360009BC6F313063343BB
:1038600018D1219B002B00F06086194B029308337E
:10387000219A0298136017B0BDE8F08FC8F31301C6
:1038800041F07F530E953A46A4F2FF3443F44013BF
:10389000149D6FE7219B002B40F003840D4B029396
:1038A0003EE700BFAFF3008061436F63A787D23F5D
:1038B000B3C8608B288AC63FFB799F501344D33F1F
:1038C0000000F07F413004080000F83F802E03081C
:1038D0008857040894570408B8F1000FC0F2A38475
:1038E0000D90099000230C93039BCDF81890092BA1
:1038F000C844DAF824009AD9002301240393CDE9BF
:103900000A344FF0FF3308930021089B41600F9366
:10391000504601F051FD0290002800F0FF85DAF8D2
:103920002430029A1A60089B0E2B00F20A81002CA8
:1039300000F007810699002940F37784B14B01F02C
:103940000F0203EBC20393ED007B0C11E2068DED39
:10395000107B40F11484AC4BDDE90401D3E908236A
:1039600004F086F8CDE9000104F00F0403267CB1D1
:10397000DDE91001A44DE30704D5D5E9002303F0E8
:103980004DFF0136641005F10805F4D1CDE91001B1
:10399000DDE90001DDE9102304F06AF8CDE900015A
:1039A0000D9B53B1DDE900450022984B2046294686
:1039B00004F0A6F9002840F03585304603F0C4FE37
:1039C000DDE9002303F02AFF914B002203F070FD94
:1039D000089B0446A1F15075002B00F00884069B5B
:1039E0001293089B1093DDE900673946304604F0D6
:1039F000C5F9009003F0A8FE02460B463046394652
:103A000003F054FD7F4B009A0F461099064603EBD6
:103A1000C1030B9802993032CDE90045D5B24C1C58
:103A200053E90223002800F0A1840020794904F022
:103A30001FF8DDE9002303F039FD029B32461D70BB
:103A40003B46CDE9000104F079F9002840F0DE841E
:103A500032463B4600206D4903F028FD02460B46E6
:103A6000DDE9000104F06AF9002840F03D85109B73
:103A7000012B62D0029ACDF840901344CDF84C80CF
:103A8000DDE90089CDF800B0D3469A460EE0324613
:103A90003B4600205D4903F009FD42464B4604F0D9
:103AA0002FF9002840F0FC8454453FD04046494659
:103AB0000022594B03F0B2FE0022574B8046894644
:103AC0003046394603F0AAFE0F46064604F056F982
:103AD000054603F039FE02460B463046394603F0F0
:103AE000E5FC3035EDB204F8015B42464B46064634
:103AF0000F4604F005F90028C9D0129BDA460133BD
:103B0000DDF800B006935946504601F095FC0023BD
:103B10002370079B1A46069B1360219B002B3FF4E2
:103B2000FFAD02981C6017B0BDE8F08FDA46DDF8F3
:103B30004090DDF84C80DDF800B0DDE90434CDE9DB
:103B40000034159B002BC0F2C680069A0E2A00F3A3
:103B5000C2802C4B03EBC203D3E900890A9B002BE4
:103B600017DA089F002F14DC40F05A8300222B4BF9
:103B70004046494603F052FEDDE9002304F0D4F844
:103B8000002800F0D283089F3D460A9B029CDB433D
:103B9000DEE2DDE9004542464B462046294603F079
:103BA00067FF04F0EBF80646009003F0CDFD4246B7
:103BB0004B4603F033FE02460B4620462946029C44
:103BC0003546303503F072FC069E04F8015B089D13
:103BD0000136012D02460B46069652D000220E4BAE
:103BE00003F01CFE0022002306460F4604F07EF878
:103BF000002888D1CDF800B00125DDF820B0CDF83F
:103C00000CA01AE0802E0308702F03080000F03F7C
:103C100000001C400000E03F000024400000144071
:103C20000022BF4B03F0FAFD0022002306460F4698
:103C300004F05CF8002840F06D8342464B46304665
:103C4000394603F015FF04F099F8824603F07CFD35
:103C500042464B4603F0E2FD02460B4630463946EB
:103C600003F024FC01350AF13006AB4502460B4651
:103C700004F8016BD4D1DDF800B0CDF800A0DDF878
:103C80000CA01046194603F013FC42464B4606466C
:103C90000F4604F053F860B942464B463046394669
:103CA00004F024F800283FF42EAF009BD9077FF5DD
:103CB0002AAF14F8015C029A631E04E09A4200F0F5
:103CC000D78313F8015D392D03F10104F6D06A1C86
:103CD000D2B21A7017E70B9A002A45D0039A012A2C
:103CE00040F36382089B5E1E0C9BB342C0F241828C
:103CF0009E1B089B002BC0F21383099A14461A449A
:103D0000984409920121504601F0B2FC05462EE08C
:103D10000123B8F1000F0D93BFF674ADC4F1010398
:103D200009934FF000086FE51020FCF76DFBCAF80F
:103D30002400002800F0DD83C0E901660660C6604B
:103D4000C9E4484603F000FD32463B4603F0CEFF8F
:103D500000287FF43DAD09F1FF3939E5714B02933D
:103D6000029817B0BDE8F08F0C9E099C0B9D002CAB
:103D70000CDDB8F1000F09DD4445099A2346A8BFC0
:103D80004346D21A0992E41AA8EB03080C9BD3B15C
:103D90000B9B002B00F07E81002E10DD2946324661
:103DA000504601F021FD5A4601460546504601F0B5
:103DB00075FC59460746504601F03EFBBB460C9B3E
:103DC0009A1B40F068810121504601F051FCB9F185
:103DD000000F074600F39080039B012B40F36681A0
:103DE00000260120B9F1000F40F09180404410F00E
:103DF0001F0077D0C0F12003042B40F39A83C0F159
:103E00001C00099B0344099304448044099B002B34
:103E100005DD59461A46504601F048FD8346B8F183
:103E2000000F05DD39464246504601F03FFD07468A
:103E30000D9B002B40F01381089B002B40F3FA8070
:103E40000B9B002B7ED1069B01330693029CDDF871
:103E50002080012607E0594600230A22504601F03F
:103E600011FB0136834639465846FFF785FBB045BE
:103E700000F1300004F8010BEDDC03464FF00009BF
:103E8000594601225046009301F010FD3946834601
:103E900001F070FD002814F8012C40F37881631EB6
:103EA000029904E0994200F08D8113F8012D392A1E
:103EB00003F10104F6D001321A703946504601F080
:103EC000BBFA002D3FF41FAEB9F1000F05D0A94594
:103ED00003D04946504601F0AFFA2946504601F05A
:103EE000ABFA10E61C208CE70124A6E4C3F12006FF
:103EF000009B03FA06F035E401464A46504601F0BD
:103F000073FC039B012B074640F3B98100263B69F4
:103F100007EB8303186901F05BFBC0F1200065E744
:103F20000000244040300408294600230A2250465D
:103F300001F0A8FA0F9B002B054640F3CC82CDF888
:103F400018800893002C00F30D81002E40F0CB81E7
:103F5000A846009B0399029E03F001020B920A43BC
:103F60000A92089A731E1A44099239465846FFF776
:103F700003FB29460090584601F0FCFC424681466E
:103F80003946504601F012FD009BC26804463033AA
:103F9000002A41D101465846089301F0EBFC214626
:103FA0000490504601F048FA049A089B1AB90A99FD
:103FB000002900F07C82B9F1000F06F10104C0F283
:103FC0007581039941EA09090B9951EA090100F049
:103FD0006D81002A00F3AB81099A3370B24200F080
:103FE000B281594600230A22504601F04BFA45455A
:103FF000834629464FF000034FF00A02504613D083
:1040000001F040FA4146054600230A22504601F0DD
:1040100039FA26468046A8E701465046049301F047
:104020000BFA0122049BC6E701F02CFA264605464E
:1040300080469AE7039B022B73DC0B9B002B81D1FC
:1040400039465846FFF798FA069A029C00F1300369
:104050000132069204F8013B4FF0000910E739469F
:10406000584601F087FC0028BFF6E6AE594600230B
:104070000A22504601F006FA069B03F1FF380B9B1B
:104080008346002B7FF450AF0F9B002B40F31C8224
:104090000893DBE60C9A5946504601F0A5FB83468F
:1040A00091E6AC4B02930333FFF7E2BBDDE900126C
:1040B00000297FF495AEC2F31303002B00F0EA80D1
:1040C000009E8EE601230B930A9D002D5ADD0F956D
:1040D00008950021172D41607FF71AAC01220423B7
:1040E0005B0003F11406AE42114602F10102F7D95A
:1040F00041600DE401230B930A9B069A13440F932E
:104100000133012B1D460893B8BF0125E1E70023C9
:104110000B93F1E700230B93D6E70F9B0893CDF8A1
:104120001880089B002B7FF430AD3946052250469D
:1041300001F0A8F901460746584601F01BFC00288B
:104140007FF723AD029C069B312204F8012B01333B
:10415000013339465046069301F06EF9002D7FF485
:10416000BCAED0E429462246504601F09FFB0546EE
:10417000EBE60C9B0C96F31A99440026B9E502264F
:10418000FFF7F5BB01230A930893FFF7BDBB03D1EB
:10419000009BDB073FF583AE631E01E013F8012DA2
:1041A000302A03F10104F9D087E60E9A002A00F0C4
:1041B000328103F23343099A0C9E14461A44984400
:1041C00009929FE5069A01320692029A31231370F2
:1041D00073E6304603F0B8FADDE9002303F01EFB76
:1041E00000225D4B03F064F90446A1F150750022F2
:1041F0005A4BDDE9000103F059F922462B460646E9
:104200000F4603F09BFD002840F08E80224605F10A
:1042100000433046394603F073FD00283FF48DAC6F
:1042200000273D46B1E40D9078E500F0F880069B4C
:104230005C424B4B04F00F0203EBC203D3E90023B3
:10424000DDE9040103F0EAFA2411CDE9000100F0F0
:10425000E680444D00230226E70705D5D5E9002373
:1042600003F0DCFA01360123641005F10805F3D1EF
:10427000002B3FF495ABCDE90001FFF791BB009B0C
:10428000002B7FF443AEDDE90012C2F31303002BD1
:104290007FF43CAE344E1640002E3FF4A2AD099B95
:1042A0000133099308F1010801269AE50699002ACD
:1042B00001F10101069112DD594601225046039396
:1042C00001F0F4FA3946834601F054FB0028039BC1
:1042D00040F3E080392B00F0D280009B3133A946B7
:1042E00033704546E9E56968504601F065F80446D3
:1042F000002800F004812B6902339A0005F10C01BB
:104300000C30FCF791F821460122504601F0CEFA1C
:1043100080461EE6DDF800B0DDF80CA0FFF7F3BB29
:10432000DDE908239C1AEDE400273D460AE7069ADA
:10433000392B02F10102069200F0A1800133A94657
:1043400033704546B9E5069A0132A94606924546BC
:1043500096E500BF9457040800001C40000014407C
:10436000802E0308702F03080000F07FDDE90001B4
:1043700003F054FA029B1D70109B012BCDE9000144
:1043800023D0109B029ACDF840901344C146984622
:104390000022714B3046394603F040FA0F4606467C
:1043A00003F0ECFC054603F0CFF9303502460B462E
:1043B0003046394603F07AF804F8015B4445064676
:1043C0000F46E5D1C846DDF84090644B0022DDE998
:1043D000000103F06DF832463B4603F091FC0028E3
:1043E00052D1DDE9002300205C4903F05FF832463A
:1043F0003B4603F0A3FC00283FF49FAB00E01446CB
:1044000014F8013C302B04F1FF32F8D0129B013339
:104410000693FFF778BB149BC3F13603CBE6022665
:10442000FFF7BEBA089B002B3FF4D3AE0F9F002FBF
:104430007FF783AB0022484B2046294603F0EEF974
:1044400004460D46701CCDE9004503F07DF9224677
:104450002B4603F0E3F9424B002203F029F8069BB8
:104460001097013B0446A1F150751293FFF7BBBAB8
:10447000069A0132069231221A70FFF744BB3922A4
:10448000A946327045460AE5129B0133069314F89B
:10449000015C10E47FF423AFDA077FF520AF19E762
:1044A000129B0133DA460693DDF800B003E4069A66
:1044B000392B02F10102069206F10104DFD0B9F1B5
:1044C000000F3FF70AAF0AE7039B022B3FF725AE29
:1044D000CDF81880B4E5039B022B3FF71EAE0F9B6F
:1044E000CDF8188008932DE5129B01330693FFF752
:1044F000E2BB02461B4B1C48EA2102F0B5FD024616
:104500001A4B194840F2EA2102F0AEFD0024446043
:104510002146504600F050FF029078B9134B1248E4
:1045200000224FF4D57102F09FFD114B0293FFF76B
:10453000F7B83FF46BACC0F13C0062E4DAF8243029
:10454000029919604FF0FF32012308920A940F92EA
:104550000B93FFF7F6BA00BF000024400000E03FD5
:1045600000001C4098570408B0570408E45704089A
:10457000885704088B891A072DE9F0410C468046BC
:1045800041D44A68002A59DDE66A002E53D0002241
:10459000D8F80050216AC8F8002013F4805251D195
:1045A00001234046B047431C5FD0A389E66A216AD5
:1045B0005F0705D56268636B801A0BB1236CC01A64
:1045C000024600234046B047461C45D1D8F800308B
:1045D000B4F90C20002B55D01D2B01D0162B5AD12D
:1045E00023690022C4E90032616BC8F8005011B39E
:1045F00004F14403994202D04046FCF767F80020DA
:104600006063BDE8F0810E69AEB10D680E60990778
:104610000CBF63690023AD1BA3600AE02B46324642
:10462000A76A216A4046B8470028A5EB0005064462
:104630000ADD002DF2DC0020BDE8F0810A6C002AC2
:10464000A2DCF8E7606DB3E7A38943F04003A381E0
:104650004FF0FF30BDE8F0812269A389226000227B
:104660006260DA04C0D56065BEE7D8F80030002B80
:104670009BD01D2B0CD0162B0AD0A38943F04003EE
:10468000A381D9E72169C4E90013D304ACD5EAE7D3
:10469000C8F80050CFE742F04002A281CCE700BF4B
:1046A0000B6923B310B5044682B008B18369BBB16E
:1046B000104B994212D0104B994216D00F4B994291
:1046C00008BFE168B1F90C302BB1204602B0BDE85B
:1046D0001040FFF74FBF002002B010BD6168F1E746
:1046E000019100F007F90199E2E7A168EAE70020EB
:1046F000704700BF442D0308242D0308042D030830
:1047000020B1054B01461868FFF7CABF034B0449A7
:10471000186800F035B900BF18020020A42B030868
:10472000A146000800207047014900F029B900BFE8
:10473000A14600080020704770B54A1E682505FB99
:1047400002F50E4605F17401FCF716F8044640B177
:1047500000210C30666005F168022160A060FBF763
:1047600065FF204670BD00BF1E4B70B51D68AB696C
:10477000064643B34835D5E90134013B05D51EE073
:10478000013B5A1C04F1680419D0B4F90C20002A2A
:10479000F6D10025144B6566C4E90055A560C4E94F
:1047A0000455A5612946E360082204F15C00FBF78B
:1047B0003DFFC4E90D55C4E91255204670BD2C6873
:1047C0002CB12546D7E7284600F010F8D2E704219F
:1047D0003046FFF7B1FF044628600028F1D10C23D2
:1047E0003360EAE7A42B03080100FFFF2DE9F84F2F
:1047F000334B34491A68816290424FF00003C0E99C
:104800001233036504BF012383610546FFF7ACFF44
:1048100068602846FFF7A8FFA8602846FFF7A4FFB6
:104820006E68E86000240423F3607466C6E90044FF
:10483000B460C6E90444B461214606F15C00082274
:10484000FBF7F4FEDFF888B0AF68DFF888A0DFF888
:104850008890DFF888801C4BC6F83080C6E9086B6A
:10486000C6E90AA92146FB6008227C66C7E9004424
:10487000BC60C7E90444BC6107F15C00FBF7D6FEED
:10488000EE68124BC7F83080C7E9087BC7E90AA970
:104890002146F3607466C6E90044B460C6E9044486
:1048A000B46106F15C000822FBF7C0FE0123C6E9F3
:1048B000086BC6E90AA9C6F83080AB61BDE8F88F7D
:1048C000A42B030829470008090001001200020078
:1048D000351B00085D1B00089D1B0008BD1B000860
:1048E000024B0349186800F04BB800BFA42B030823
:1048F000A1460008836903B978E77047704700BF95
:10490000704700BF704700BF704700BF024B0349AC
:10491000186800F00FB800BF1802002025470008F3
:10492000024B0349186800F005B800BF18020020C8
:10493000354700082DE9F04110F148071BD08846A3
:104940000026D7E90154013D0FD4A389012B05F1BD
:10495000FF3506D9B4F90E300133204601D0C047E7
:1049600006436B1C04F16804EFD13F68002FE8D1C7
:104970003046BDE8F0813E463046BDE8F08100BFDC
:104980002DE9F84310F148071FD0884606464FF03E
:104990000009D7E90154013D11D4A389012B05F188
:1049A000FF3508D9B4F90E3001332146304602D024
:1049B000C04749EA00096B1C04F16804EDD13F6867
:1049C000002FE6D14846BDE8F883B9464846BDE821
:1049D000F88300BF2DE9F04106694D11AE422EDD8E
:1049E00000F1140711F01F0107EB860C07EB85039C
:1049F0002BD057F8252004339C4522FA01F4C1F14D
:104A0000200818D9BE461A6802FA08F222434EF866
:104A1000042B53F8044B9C4524FA01F4F3D8731B80
:104A20009B00053B9B08013307EB830547F82340B8
:104A3000CCB1043517E044613D46002CF9D1002388
:104A4000036100234361BDE8F0819C4588BF00F10C
:104A50001002F4D953F8041B42F8041F9C45F9D8FE
:104A6000751B07EB8505EB1B9B10BD420361E8D06E
:104A7000BDE8F0812DE9F04FBC4C8DB02468089062
:104A80008946204605920A930694FDF719FAD9F84B
:104A90000030049021189A7811F8011C0191302AF5
:104AA00040F0E5816FF00101C91A033301EB030AFD
:104AB0001C4613F8012B302AF8D0AD4FBB5C002BFD
:104AC00000F0F98023784FF00008FB5C454626464D
:104AD00023B116F8013FFB5C002BFAD1049A06992A
:104AE0003046FDF75BFA0290002800F09980337899
:104AF000002D40F098810295502B00F09B80702B88
:104B000000F098803546C9F80060B8F1000F40F019
:104B1000C0802B1B013B072B414604DD5B10072B9C
:104B200001F10101FADC089800F046FC039000282E
:104B300000F03F82039BAC4203F11403099380F021
:104B4000C5819B46049B0026C3F10103B146079330
:104B50000FE0202E00F0A6803246043615F8013C06
:104B6000FB5C554603F00F039340A54249EA030955
:104B700018D915F8013C019A934205F1FF3A0BF15F
:104B80000408E6D1079B5344A342E2D31846049A93
:104B900006990B93FDF702FA0B9B0028D9D11D460D
:104BA000A542E6D8099B039ACBF80090A8EB03082E
:104BB0004FEAA803136148464FEA431800F008FD86
:104BC000059B1C68A8EB0000A04200F3AE80C0F279
:104BD0002E810026059B029A9B689342C0F26B814E
:104BE0000598029A4368934240F382809D1AAC4232
:104BF00000F3C080C268022A00F09D81032A00F001
:104C00009581012A00F079810898039900F014FC3D
:104C10005025169A0023284613600DB0BDE8F08F8A
:104C2000002D00F01381AD1BAB0002933378502BA5
:104C30007FF465AF73782B2B00F0F3802D2B70D0B1
:104C4000711C0025FB5C5A1E182A3FF65BAF4A78A0
:104C5000BA5C501E1828A3F1100301F101010BD812
:104C600011F8010F03EB830302EB43033A5C501E80
:104C70001828A3F11003F3D905B15B42029A354617
:104C80001A440E460292C9F80060B8F1000F3FF4D2
:104C900040AFBAF1000F14BF0025062528460DB01D
:104CA000BDE8F08F5B46002243F8089BC34691465F
:104CB0009846042652E7049D06992A462046FDF7A9
:104CC0006DF9002874D1625DBB5C6619002B71D050
:104CD000302A344604D114F8013F302BFBD0FB5C62
:104CE000B3FA83F835464FEA58184FF0010AEEE65A
:104CF000012556B1059BDB68022B62D0032B64D0E3
:104D0000012B00F0858045F01005169B1A46039B89
:104D100013600A9B1A46029B136028460DB0BDE83B
:104D2000F08F0125B378B11C8CE7039F051B294642
:104D3000384601F031F8064678B16A1E099E5111D5
:104D400002F01F0356F82110012606FA03F30B4266
:104D500003D0B24200F3C8800226DDE902302946C2
:104D60002B440293FFF736FE34E700BF642E03089E
:104D7000642D03086F1E002E40F0A680002F40F027
:104D8000AD807B11099A039852F8232007F01F0782
:104D9000012303FA07F71742294618BF46F0020617
:104DA000FFF718FE059B5B680293641B0225A0E7D2
:104DB00022782646502A5ED0702A5CD0C9F800605E
:104DC00067E7179BC3F101031793179B002B9AD03A
:104DD000039BDDF824C01E69B7000CEB0700634697
:104DE000002103E0984243F8041C49D99E4653F839
:104DF000042BB2F1FF3FF5D00132022DCEF8002096
:104E000000F09E8014F01F0440F0BC8021257CE758
:104E1000B2077FF578AF099B1B681E43F307D7D411
:104E200071E700257EE7AD1BAA00029264E6251A11
:104E3000039908982A4600F039FD029B03905B1BFA
:104E400002930346143309930026C3E60499735C66
:104E5000FA5C71180E46002A3FF44EAE16F8013F78
:104E6000FA5C002AFAD1891B8A00029244E69C1C53
:104E70004FF0000A21E6002302934FF00108D9E623
:104E8000039B9B689E4262DA3346039800EB8302E1
:104E900001210133022D0361516151D09E42B1DAEB
:104EA00001210398FFF796FD059B029A9B6801324A
:104EB00093420292AADA0399089800F0BDFA169A72
:104EC00000231360A325E9E601265AE7039BDDF8DA
:104ED00024B003F118084FF0000963E6394603983F
:104EE00000F05AFF06464CE7A91E384600F054FF72
:104EF00000283FF431AF03262FE7AC427FF484AEA5
:104F0000012C08D0611E039800F046FF00283FF4F2
:104F10007BAE059B5B680A990B60039B0999012294
:104F20001A610A60169A62251360B7E6179A002A7A
:104F30003FF46AAEEFE7179A002A7FF465AEEAE71E
:104F4000059B1B68013BA34227D02225DDE6039B7E
:104F500008985968013100F02FFA804678B3039918
:104F60000B6902339A000C310C30FBF75DFA0399A0
:104F7000089800F061FACDF80C8008F1140CD8F80C
:104F8000103082E76744C4F1200457F8040C00F0A5
:104F90001FFBA042BFF63AAF82E7631104F01F0483
:104FA0005CF823200123A34013420CBF22252125B6
:104FB000ABE60246054B0648DE2102F055F80246F4
:104FC000024B0348842102F04FF800BFE457040865
:104FD000F857040830B40468013408E014F8013BC1
:104FE000A3F14105192D98BF2033934207D111F841
:104FF000012B002AF2D10460012030BC7047002050
:1050000030BC70472DE9F04F096885B04B1111F0A5
:105010001F01019002EB8303039140F086801D1F66
:1050200000930098DFF874910295002340F8043C47
:1050300019469A461E469846019BD3F800E09EF812
:105040000140AC462B4693460EF10100B4B119F86D
:105050000450002D4BD1202C00F28E80564506DDE9
:10506000634501D2072974DD5B4555D80821864682
:105070009EF801400EF10100002CE8D1029D5A4635
:10508000002E7DD0634513D2072911DCC1F1080140
:1050900089001E68C1F1200E1846476807FA0EF411
:1050A000344327FA01F6046040F8046F8445F4D8CD
:1050B00093423ED9114653F8040B41F8040B9D422C
:1050C000F9D2002341F8043BA942FBD9009B53F8D5
:1050D000041C21B158E055F8043D002B54D1AA42DC
:1050E000F9D1012305202B6005B0BDE8F08F013117
:1050F000082906F1010607DC1A68120105F00F0500
:1051000015431D608646B3E75B45B0D943F8048C70
:105110000022043B0121F1E7A3F1040C43F8048CC5
:10512000B246634600218646A2E7191D00911D463E
:1051300077E7009C039B54F8041C002BC9D0C3F1F3
:1051400020034FF0FF3020FA03F3194044F8041C09
:10515000BFE7C1F1080189001F68C1F1200E1C469C
:10516000656805FA0EF23A4325FA01F7226044F821
:10517000047FA445F4D877E7292C029D5A4607D02E
:10518000042005B0BDE8F08F052005B0BDE8F08F24
:10519000019C0EF10200206072E700BF642D03083D
:1051A000F030704700487047700300200048704797
:1051B0007003002070B50D46084C114606461A468D
:1051C00028460023236004F02FF9431C00D070BD53
:1051D0002368002BFBD0336070BD00BFFCEE0020C5
:1051E00070B50C46B1F90E10002996B016461D4652
:1051F00013DB6A4601F07EFF00280EDB019A02F401
:105200007042A2F50052B2FA82F252094FF4806362
:1052100000202A60336016B070BDA38900221B06EF
:105220002A6004D540230020336016B070BD4FF4CF
:1052300080630020336016B070BD00BF8A8992077A
:105240000B4606D501F1470201211A60C3E904218A
:10525000704770B582B001AB6A460C460646FFF750
:10526000BFFF009905463046FBF786FAB4F90C30CB
:1052700070B11649B162019A0099206043F0800331
:10528000A381C4E904018AB92B43A38102B070BD94
:105290009A05FBD423F0030304F1470243F0020311
:1052A0000121A3812260C4E90421EFE73046B4F96B
:1052B0000E1002F0B7F810B9B4F90C30E4E7A38986
:1052C00023F0030343F001031BB2DDE72947000885
:1052D00010B4034CD4F8E440A4465DF8044B604796
:1052E0008002002082B049B15AB16BB113780B60D3
:1052F0001278101C18BF012002B0704701A9002AC3
:10530000F3D1104602B070476FF00100F4E700BF20
:1053100001F0FF01102A2BDB10F0070F08D010F866
:10532000013B013A8B422DD010F0070F42B3F6D16A
:10533000F0B441EA012141EA014122F007047FF083
:1053400000070023F0E80256083C85EA010586EADA
:10535000010685FA47F5A3FA87F586FA47F6A5FA16
:1053600087F68EB9EED1F0BC01F0FF0102F0070222
:1053700032B110F8013B013A83EA010313B1F8D1CD
:105380000020704701387047002D06BF35460338AE
:10539000073815F0010F07D1013015F4807F02BFE7
:1053A000013015F4C03F0130F0BC0138704700BF38
:1053B000704700BF704700BF70B5446A06460D468F
:1053C0005CB1E368A3B153F82500E8B1026843F883
:1053D00025200023C0E9033370BD1020FBF714F82B
:1053E00004467062E8B10023C0E901330360C36082
:1053F00021220421304600F0FBFC736AE060DB6888
:10540000002BE0D1002070BD012101FA05F4621DDE
:105410003046920000F0ECFC0028F3D0C0E90154C3
:10542000D7E70246024B0348662101F01DFE00BF8C
:10543000985704084458040830B5456A83B00446B8
:1054400055B139B1636A4A68DB6853F822000860D5
:1054500043F8221003B030BD10200191FAF7D4FFB9
:105460000199606220B1C0E901550560C560E8E7B7
:105470000246024B02488A2101F0F6FD98570408C3
:1054800044580408F0B50C6983B00D46064601F196
:10549000140C0027DCF8000081B202FB0133190C68
:1054A000000C02FB00109BB2013703EB0043BC422F
:1054B0004CF8043B4FEA1043ECDC3BB1AA68A24233
:1054C00007DD05EB8402013453612C61284603B0EB
:1054D000F0BD6968019330460131FFF76DFF019B14
:1054E0000746A0B12A6901930232920005F10C012E
:1054F0000C30FAF799FF294630463D46FFF79CFFEE
:1055000005EB8402019B536101342C61DEE7024606
:10551000024B0348B52101F0A7FD00BFE457040882
:10552000445804082DE9F843264C089E1D460833CC
:1055300084FB034C092D4FEAE373904607460C4663
:10554000C3EB6C0236DD012300215B009A4201F1BE
:105550000101FADC3846FFF72FFF68B30123B8F1E9
:10556000090FC0E9043613DC0A344FF00908454539
:105570000CDDA5EB0805254414F8013B0146303B42
:105580000A223846FFF77EFFA542F5D1BDE8F88331
:1055900004F109094E46444416F8013B0146303BEC
:1055A0000A223846FFF76EFFB442F5D1A8F108048D
:1055B0004C44DCE70021CDE70246034B0348CE21F3
:1055C00001F052FD398EE338E457040844580408CA
:1055D000020C12040346CAB90304102013F07F4FD3
:1055E00004BF1B02083013F0704F04BF1B010430CE
:1055F00013F0404F04BF9B000230002B05DB13F07B
:10560000804F00F1010008BF202070470020E5E72F
:10561000036813F00702014607D0DA0720D4980781
:1056200022D55B080B600120704798B2B0B91B0C03
:10563000102013F0FF0F04BF1B0A08301A0704BF25
:105640001B0904309A0704BF9B080230DA0703D411
:105650005B0800F1010005D00B6070471046E8E7D9
:1056600000207047202070479B080B600220704785
:1056700010B50C460121FFF79FFE024618B1012329
:10568000C0E9043410BD034B03484FF4A07101F08E
:10569000EBFC00BFE4570408445804082DE9F04F20
:1056A0000E691769BE4283B00C46154605DB3A46C3
:1056B0002B4637460D4616461C46D5E9011307EB27
:1056C00006084345B8BF0131FFF776FE0090002879
:1056D0007FD0009B03F1140A0AEB8809CA4505D262
:1056E0005346002143F8041B9945FBD804F1140EDE
:1056F0000EEB860B05F11403DE4503EB870753D24F
:10570000CDF80480984605E0090C28D1F3450AF14C
:10571000040A47D95EF8041B8EB2002EF4D0454629
:105720005446002355F8041B20688AB21FFA80FCF7
:1057300006FB02C2090C000C134406FB010202EB3B
:1057400013429BB243EA0243AF4244F8043B4FEAA0
:105750001243E7D823605EF8041C090CD6D0DAF8AF
:10576000003040461A4654464FF0000C0588120C93
:1057700001FB052294449BB243EA0C4344F8043BEA
:1057800050F8043B22681B0C95B201FB035303EB5A
:105790001C4387424FEA134CE8D8F34523600AF1D3
:1057A000040AB7D8DDF80480B8F1000F0BDD59F812
:1057B000043CA9F104091BB105E059F8043D13B9F3
:1057C000B8F10108F9D10098C0F8108003B0BDE825
:1057D000F08F0246024B034840F25D1101F044FC99
:1057E000E4570408445804082DE9F04312F0030379
:1057F00083B0144607462DD10E46A4101CD07A6AF9
:105800008AB39568002D39D0E3074FF0000906D41C
:10581000641011D0286898B10546E307F8D53146E1
:105820002A463846FFF73AFF314680463846FFF7AA
:1058300003FE64104646EDD1304603B0BDE8F08368
:105840002A4629463846FFF729FF2860C0F800900D
:105850000546E2E7013B124A52F823200023FFF7F6
:1058600011FE0646C9E71020FAF7CEFD024678621F
:1058700080B10023C0E901330360C36040F27121AD
:1058800038460192FFF7F4FE019A00239060054626
:105890000360B9E7034B04484FF4D77101F0E4FB10
:1058A000702E030898570408445804082DE9F0475F
:1058B0000E690D464FEA621AD1E901135644741C71
:1058C0009C429146074604DD5B009C4201F10101C8
:1058D000FADC3846FFF770FD804600283FD0BAF169
:1058E000000F00F114000EDD0AF1050A4FEA8A0AE2
:1058F00008EB0A010346002243F8042B8B42FBD13C
:10590000AAF1140A5044296905F1140319F01F097A
:1059100003EB810C1BD0C9F1200E0022196801FA9B
:1059200009F1114340F8041B53F8042B9C4522FA5B
:105930000EF2F3D80260002A18BF26463846C8F88F
:1059400010602946FFF778FD4046BDE8F08704382F
:1059500053F8042B40F8042F9C45F9D8EEE7024693
:10596000024B034840F2D91101F07EFBE4570408D2
:105970004458040830B40B6905460069C01A10D1B8
:105980009B001435143119442B4401E09D4208D288
:1059900053F8044D51F8042D9442F7D003D24FF040
:1059A000FF3030BC7047012030BC70472DE9F84310
:1059B00016460B691269A3EB0208B8F1000F0D46F9
:1059C00067D1920001F1140706F11401BB181144CC
:1059D00001E09F4261D253F8042D51F8044DA242D8
:1059E000F7D050D36968FFF7E7FC00285FD02F6934
:1059F0003369C0F80C8006F11402143505EB870CEE
:105A000002EB830E00F11406002100E0264652F856
:105A1000044B55F8048B1FFA84F911FA88F3210C12
:105A2000A3EB0903C1EB184101EB234134469BB2C0
:105A300043EA014396454FEA214144F8043BA84616
:105A4000E4D8AC4516D9264658F8042B11FA82F34F
:105A5000191401EB12419BB243EA0143C44546F8D5
:105A6000043B4FEA2141EFD80CF1FF36761B26F0BC
:105A70000306264423B956F8043D013F002BFAD013
:105A80000761BDE8F8832B464FF0010835461E46F6
:105A9000A8E7F8DB4FF00008A4E70021FFF78CFC33
:105AA00060B101220023C0E90423BDE8F883024667
:105AB000064B07484FF4107101F0D6FA0246034B2B
:105AC000034840F2322101F0CFFA00BFE457040846
:105AD00044580408124B10EE902A1A40A2F1507359
:105AE000002B04DD0020194641EC100B70475B428F
:105AF0001B15132B07DC4FF40022002042FA03F1A0
:105B000041EC100B7047143B1E2BDABF4FF00042E4
